:0400000006EF00F017
:0C0008003DED05F015EE38F0FFEF14F0B0
:10060000000001012A51800B0001BC6F01012A5139
:100610002A250001BE6F010129AF11EF03F013EF8E
:1006200003F015EF03F00001BE810001BE51D8B404
:100630001CEF03F01EEF03F033EF03F0BE29D8A444
:1006400024EF03F026EF03F02FEF03F0000E01017B
:10065000276F000E286F000E296F000E2A6F010110
:10066000298F3CEF03F0000E0101276F000E286F69
:10067000000E296F000E2A6F2E51800B0001BC1B4B
:1006800001012E512E250001BD6F01012DAF4BEF51
:1006900003F04DEF03F04FEF03F00001BD810001C7
:1006A000BD51D8B456EF03F058EF03F06DEF03F0EF
:1006B000BD29D8A45EEF03F060EF03F069EF03F00B
:1006C000000E01012B6F000E2C6F000E2D6F000E1F
:1006D0002E6F01012D8F76EF03F0000E01012B6FBD
:1006E000000E2C6F000E2D6F000E2E6F0001BD51FD
:1006F000D8B47DEF03F07FEF03F087EF03F0BE5136
:10070000D8A485EF03F087EF03F092EF03F0000E1B
:100710000101276F000E286F000E296F000E2A6F4F
:100720003CEF05F001012D512703F3CFC7F0F4CFC3
:10073000C8F00001C751BF6FC06BC16BC26BC8511D
:10074000C36FC46BC56BC66B01012C512803F3CF7B
:10075000C7F0F4CFC8F00001C751BF27000EC02377
:10076000C123C223C851C327000EC423C523C623F7
:1007700001012B512903F3CFC7F0F4CFC8F00001DA
:10078000C751BF27000EC023C123C223C851C327AE
:10079000000EC423C523C623C1C0C2F0C0C0C1F02F
:1007A000BFC0C0F0BF6B01012B512803F3CFC7F0CE
:1007B000F4CFC8F00001C751BF27C851C023000EB5
:1007C000C123000EC22301012C512703F3CFC7F030
:1007D000F4CFC8F00001C751BF27C851C023000E95
:1007E000C123000EC223C1C0C2F0C0C0C1F0BFC04F
:1007F000C0F0BF6B01012B512703F3CFC7F0F4CF3B
:10080000C8F00001C751BF27C851C023000EC12343
:10081000000EC22301012D512803F3CFC7F0F4CFFE
:10082000C8F00001C751C327C851C423000EC52317
:10083000000EC62301012C512903F3CFC7F0F4CFDA
:10084000C8F00001C751C327C851C423000EC523F7
:10085000000EC62301012D512903F3CFC7F0F4CFB9
:10086000C8F00001C751B86FC851B96FBA6BBB6B04
:10087000BAC0BBF0B9C0BAF0B8C0B9F0B86BB851E3
:10088000C327B951C423BA51C523BB51C623BFC026
:10089000B8F0C0C0B9F0C1C0BAF0C2C0BBF0190E08
:1008A00057EF04F0D890BB33BA33B933B833E82EDE
:1008B00052EF04F0B851C327B951C423BA51C5232C
:1008C000BB51C623C1C0C2F0C0C0C1F0BFC0C0F0A0
:1008D000BF6BBD51BEC0B8F0B96BB827000EB923CD
:1008E000820EB825C76FFF0EB921C86F8DEF04F0D7
:1008F000D890C337C437C537C637C2AF82EF04F0CC
:1009000084EF04F085EF04F0C381D890BF37C0377F
:10091000C137C237C707D8A0C807C5AF92EF04F0E8
:1009200094EF04F078EF04F0000EBD6FC2AF9BEFC0
:1009300004F09DEF04F0C1EF04F0FF0EBF15B86F97
:10094000FF0EC015B96FFF0EC115BA6F7F0EC2152D
:10095000BB6FB851B911BA11BB11D8B4B2EF04F0E2
:10096000B4EF04F0B8EF04F0010EBD6FC1EF04F076
:10097000C3A1BDEF04F0BFEF04F0C1EF04F0B4EF8A
:1009800004F0BD51D8B4C7EF04F0C9EF04F0EDEFA7
:1009900004F0010EC327000EC423C523C623C6A13D
:1009A000D4EF04F0D6EF04F0EDEF04F0C3C0B8F0DC
:1009B000C4C0B9F0C5C0BAF0C6C0BBF0BB35BB33CC
:1009C000BA33B933B833B8C0C3F0B9C0C4F0BAC091
:1009D000C5F0BBC0C6F0C74BC82BC8BFF8EF04F0CA
:1009E000C85108E1C729D8A0F8EF04F0FAEF04F0E5
:1009F00004EF05F0000EC36F000EC46F800EC56FCC
:100A00007F0EC66F32EF05F0C8BF11EF05F0C85179
:100A100006E1C705D8B00FEF05F011EF05F01DEFA7
:100A200005F0000EC36F000EC46F000EC56F000E00
:100A3000C66F000EBC6F32EF05F0C7C0BEF0FF0EF0
:100A4000C317FF0EC4177F0EC517000EC617BEA131
:100A50002CEF05F02EEF05F02FEF05F0C58FD890A5
:100A6000BE31C66FBC51C613C3C027F1C4C028F144
:100A7000C5C029F1C6C02AF112000600E1CF29F055
:100A8000E2CF2AF0D9CF2BF0DACF2CF0F3CF2DF034
:100A9000F4CF2EF001C02FF002C030F009C031F0C9
:100AA0000AC032F00BC033F00CC034F015EE9CF0ED
:100AB000F2A45DEF05F05FEF05F04DEF07F0000EDB
:100AC0003A6E000E396EBDEF05F039C021F03AC024
:100AD00022F0000E246E2C0E236EECEC14F0290E86
:100AE0002124D96E030E2220DA6E020EDE18D8A45D
:100AF0007CEF05F07EEF05F0BBEF05F039C021F08B
:100B00003AC022F0000E246E2C0E236EECEC14F092
:100B10002A0E2124D96E030E2220DA6EDE06000E84
:100B2000DD5A39C021F03AC022F0000E246E2C0E9E
:100B3000236EECEC14F02A0E2124D96E030E222031
:100B4000DA6EDE50DE10D8A4A8EF05F0AAEF05F0AB
:100B5000BBEF05F039C021F03AC022F0000E246E40
:100B60002C0E236EECEC14F0290E2124D96E030E0A
:100B70002220DA6EDF6A394A3A2A0301DC51395CF5
:100B8000DD513A58D8A0C7EF05F0C9EF05F065EF81
:100B900005F0000E366E000E356EDEC321F0DFC3A9
:100BA00022F0000E246E2C0E236EECEC14F0290EB5
:100BB0002124D96E030E2220DA6EDE04D8A4E3EFDE
:100BC00005F0E5EF05F073EF06F0DEC321F0DFC3BB
:100BD00022F0000E246E2C0E236EECEC14F0260E88
:100BE0002124D96E030E2220DA6EE8CFDFFFDEC3A8
:100BF00021F0DFC322F0000E246E2C0E236EECECED
:100C000014F0270E2124D96E030E2220DA6EE0CFD5
:100C1000DFFFDEC321F0DFC322F0000E246E2C0EB6
:100C2000236EECEC14F0280E2124D96E030E222042
:100C3000DA6ED8CFDFFF46EF06F0DEC321F0DFC368
:100C400022F0000E246E2C0E236EECEC14F0040E39
:100C50002124276E030E2220286E35C021F036C0D5
:100C600022F0000E246E030E236EECEC14F02150E3
:100C70002724D96E22502820DA6EFDCFDEFFFECF6A
:100C8000DEFFFFCFDEFF354A362A0600FC50D8A42F
:100C90004CEF06F04EEF06F01DEF06F0DEC321F03C
:100CA000DFC322F0000E246E2C0E236EECEC14F049
:100CB000220E2124D96E030E2220DA6E35C0DEFF0B
:100CC00036C0DDFFDEC321F0DFC322F0000E246E4C
:100CD0002C0E236EECEC14F0290E2124D96E030E99
:100CE0002220DA6EDF6A3EEC15F001C0DEF302C0AE
:100CF000DFF3DEC321F0DFC322F0000E246E2C0EE2
:100D0000236EECEC14F0220E2124D96E030E222067
:100D1000DA6EDECF37F0DDCF38F0DEC321F0DFC38F
:100D200022F0000E246E2C0E236EECEC14F0290E33
:100D30002124D96E030E2220DA6EDF50D8A4A3EF4F
:100D400006F0A5EF06F036EF07F0DEC321F0DFC3B3
:100D500022F0000E246E2C0E236EECEC14F0260E06
:100D60002124D96E030E2220DA6EDF50276E275021
:100D7000DEC321F0DFC322F0000E246E2C0E236EA2
:100D8000ECEC14F0270E2124D96E030E2220DA6E2B
:100D9000DF50E06EDEC321F0DFC322F0000E246ED0
:100DA0002C0E236EECEC14F0280E2124D96E030EC9
:100DB0002220DA6EDF50D86E000EFC6E37503810ED
:100DC000D8B4E5EF06F0E7EF06F01CEF07F00500FA
:100DD0003706D8A03806DEC321F0DFC322F0000EAC
:100DE000246E2C0E236EECEC14F0040E2124276EDE
:100DF000030E2220286E37C021F038C022F0000EEA
:100E0000246E030E236EECEC14F021502724D96ECF
:100E100022502820DA6EDECFFDFFDECFFEFFDDCFD1
:100E2000FFFF37503810D8A418EF07F01AEF07F07B
:100E3000E7EF06F036EF07F00500DEC321F0DFC371
:100E400022F0000E246E2C0E236EECEC14F0240E17
:100E50002124D96E030E2220DA6EDECF27F0DDCFFB
:100E600028F027C0FDFF28C0FEFFFF6ADEC321F087
:100E7000DFC322F0000E246E2C0E236EECEC14F077
:100E8000290E2124D96E030E2220DA6E010EDF6EA8
:100E9000F294000ED76E000ED66E34C00CF033C044
:100EA0000BF032C00AF031C009F030C002F02FC0A0
:100EB00001F02EC0F4FF2DC0F3FF2CC0DAFF2BC0D1
:100EC000D9FF2AC0E2FF29C0E1FF1100F29E2BC228
:100ED000D9FF2CC2DAFFDE2A000EDD222BC2D9FF99
:100EE0002CC2DAFF010EDBBE81EF07F0010EDB50F2
:100EF00006E1DE04D8B07FEF07F081EF07F085EF61
:100F000009F0020120EE0CF02B51D9262C51DA22E7
:100F1000DECF2DF2DDCF2EF2D8902D372E372D518A
:100F20002B252F6F2E512C21306F040E2F25D96EBB
:100F3000000E3021DA6EDECF70F4DDCF71F4000EDA
:100F40000401736F2C0E726FD8EC14F0290E04019B
:100F50007025D96E030E7121DA6EDF6A020120EE70
:100F60000CF02B51D9262C51DA22DECF2DF2DDCF19
:100F70002EF2010E2D250401706F000E02012E21AC
:100F80000401716F020120EE0AF02B51D9262C5179
:100F9000DA22DECF72F4DDCF73F43AEC13F0020103
:100FA00020EE0CF02B51D9262C51DA22040170C40A
:100FB000DEFF71C4DDFF000E0201326F000E316FE3
:100FC000DEC370F4DFC371F4000E0401736F2C0EE6
:100FD000726FD8EC14F0290E04017025D96E030E3F
:100FE0007121DA6EDE04D8A4F8EF07F0FAEF07F00B
:100FF00098EF08F0DEC370F4DFC371F4000E736F76
:101000002C0E726FD8EC14F0260E04017025D96EE8
:10101000030E7121DA6EE8CFDFFFDEC370F4DFC3A9
:1010200071F4000E736F2C0E726FD8EC14F0270E53
:1010300004017025D96E030E7121DA6EE0CFDFFF57
:10104000DEC370F4DFC371F4000E736F2C0E726F89
:10105000D8EC14F0280E04017025D96E030E71210E
:10106000DA6ED8CFDFFF68EF08F0DEC370F4DFC3BD
:1010700071F4000E0401736F2C0E726FD8EC14F033
:10108000040E0401702502012D6F030E040171216D
:1010900002012E6F31C270F432C271F4000E0401ED
:1010A000736F030E726FD8EC14F0040170510201DB
:1010B0002D25D96E0401715102012E21DA6EFDCF6A
:1010C000DEFFFECFDEFFFFCFDEFF314B322B06000F
:1010D000FC50D8A46EEF08F070EF08F035EF08F080
:1010E000DEC370F4DFC371F4000E0401736F2C0EC5
:1010F000726FD8EC14F0220E04017025D96E030E25
:101100007121DA6E31C2DEFF32C2DDFFDEC370F460
:10111000DFC371F4000E736F2C0E726FD8EC14F0F5
:10112000290E04017025D96E030E7121DA6EDF6A73
:101130003EEC15F001C0DEF302C0DFF3DEC370F455
:10114000DFC371F4000E0401736F2C0E726FD8ECC4
:1011500014F0220E04017025D96E030E7121DA6E8F
:10116000DECF33F2DDCF34F2DEC370F4DFC371F4CF
:10117000000E736F2C0E726FD8EC14F0290E040160
:101180007025D96E030E7121DA6EDF50D8A4CBEF33
:1011900008F0CDEF08F071EF09F0DEC370F4DFC3A3
:1011A00071F4000E736F2C0E726FD8EC14F0260ED3
:1011B00004017025D96E030E7121DA6EDF50020131
:1011C0002D6F2D51DEC370F4DFC371F4000E0401E6
:1011D000736F2C0E726FD8EC14F0270E040170257B
:1011E000D96E030E7121DA6EDF50E06EDEC370F44B
:1011F000DFC371F4000E736F2C0E726FD8EC14F015
:10120000280E04017025D96E030E7121DA6EDF50AD
:10121000D86E000EFC6E020133513411D8B413EFB6
:1012200009F015EF09F055EF09F005000201330749
:10123000D8A03407DEC370F4DFC371F4000E0401DC
:10124000736F2C0E726FD8EC14F0040E040170252D
:1012500002012D6F030E0401712102012E6F33C2B2
:1012600070F434C271F4000E0401736F030E726FD8
:10127000D8EC14F00401705102012D25D96E04013F
:10128000715102012E21DA6EDECFFDFFDECFFEFFAF
:10129000DDCFFFFF33513411D8A451EF09F053EFE4
:1012A00009F015EF09F071EF09F00500DEC370F4E5
:1012B000DFC371F4000E0401736F2C0E726FD8EC53
:1012C00014F0240E04017025D96E030E7121DA6E1C
:1012D000DECF2DF2DDCF2EF22DC2FDFF2EC2FEFF9E
:1012E000FF6ADEC370F4DFC371F4000E0401736F94
:1012F0002C0E726FD8EC14F0290E04017025D96EF3
:10130000030E7121DA6E010EDF6EF28E1200F29E74
:1013100076C4D9FF77C4DAFFDE06000EDD5A76C444
:10132000D9FF77C4DAFF010EDBBE9BEF09F099EF1E
:1013300009F070EF0BF0040120EE0AF07651D92687
:101340007751DA22DECF78F4DDCF79F4D890783790
:101350007937785176257A6F795177217B6F040E32
:101360007A25D96E000E7B21DA6EDEC3DEFFDFC385
:10137000DDFF20EE0AF07651D9267751DA22DECF52
:1013800078F4DDCF79F4010E7825706F000E7921A5
:10139000716F000E736F030E726F3AEC13F004015D
:1013A00020EE0AF07651D9267751DA2270C4DEFF9A
:1013B00071C4DDFF000E7D6F000E7C6FDEC370F424
:1013C000DFC371F4000E736F2C0E726FD8EC14F043
:1013D000290E04017025D96E030E7121DA6EDE0428
:1013E000D8A4F5EF09F0F7EF09F08FEF0AF0DEC3AC
:1013F00070F4DFC371F4000E736F2C0E726FD8ECB3
:1014000014F0260E04017025D96E030E7121DA6ED8
:10141000E8CFDFFFDEC370F4DFC371F4000E736F3B
:101420002C0E726FD8EC14F0270E04017025D96EC3
:10143000030E7121DA6EE0CFDFFFDEC370F4DFC38D
:1014400071F4000E736F2C0E726FD8EC14F0280E2E
:1014500004017025D96E030E7121DA6ED8CFDFFF3B
:101460005EEF0AF0DEC370F4DFC371F4000E040116
:10147000736F2C0E726FD8EC14F0040E04017025FB
:10148000786F030E7121796F7CC470F47DC471F4A0
:10149000000E736F030E726FD8EC14F004017051DC
:1014A0007825D96E71517921DA6EFDCFDEFFFECF3E
:1014B000DEFFFFCFDEFF7C4B7D2B0600FC50D8A467
:1014C00064EF0AF066EF0AF032EF0AF0DEC370F460
:1014D000DFC371F4000E0401736F2C0E726FD8EC31
:1014E00014F0220E04017025D96E030E7121DA6EFC
:1014F0007CC4DEFF7DC4DDFFDEC370F4DFC371F4A6
:10150000000E736F2C0E726FD8EC14F0290E0401CC
:101510007025D96E030E7121DA6E030EDF6E3EEC7C
:1015200015F001C0DEF302C0DFF3DEC370F4DFC3E9
:1015300071F4000E0401736F2C0E726FD8EC14F06E
:10154000220E04017025D96E030E7121DA6EDECFF2
:101550007EF4DDCF7FF4DEC370F4DFC371F4000EE0
:10156000736F2C0E726FD8EC14F0290E04017025E5
:10157000D96E030E7121DA6EDF50D8A4C2EF0AF0E3
:10158000C4EF0AF05DEF0BF0DEC370F4DFC371F45B
:10159000000E736F2C0E726FD8EC14F0260E04013F
:1015A0007025D96E030E7121DA6EDF50786F785195
:1015B000DEC370F4DFC371F4000E736F2C0E726F14
:1015C000D8EC14F0270E04017025D96E030E71219A
:1015D000DA6EDF50E06EDEC370F4DFC371F4000E2C
:1015E000736F2C0E726FD8EC14F0280E0401702566
:1015F000D96E030E7121DA6EDF50D86E000EFC6ECC
:101600007E517F11D8B407EF0BF009EF0BF041EFDB
:101610000BF0050004017E07D8A07F07DEC370F43D
:10162000DFC371F4000E736F2C0E726FD8EC14F0E0
:10163000040E04017025786F030E7121796F7EC44A
:1016400070F47FC471F4000E736F030E726FD8ECE8
:1016500014F0040170517825D96E71517921DA6E38
:10166000DECFFDFFDECFFEFFDDCFFFFF7E517F111E
:10167000D8A43DEF0BF03FEF0BF009EF0BF05DEF5F
:101680000BF00500DEC370F4DFC371F4000E04013B
:10169000736F2C0E726FD8EC14F0240E04017025B9
:1016A000D96E030E7121DA6EDECF78F4DDCF79F4D6
:1016B00078C4FDFF79C4FEFFFF6ADEC370F4DFC3A8
:1016C00071F4000E736F2C0E726FD8EC14F0290EAB
:1016D00004017025D96E030E7121DA6E010EDF6EE2
:1016E000F28E120001013251800B3B6F32513225D4
:1016F000426F31AF7EEF0BF080EF0BF081EF0BF01C
:1017000042814251D8B487EF0BF089EF0BF09EEF86
:101710000BF04229D8A48FEF0BF091EF0BF099EF6B
:101720000BF0000E2F6F000E306F000E316F000EA9
:10173000326F318F000E326FA6EF0BF0000E2F6F5D
:10174000000E306F000E316F000E326F3651800B7D
:101750003B1B36513625436F35AFB1EF0BF0B3EF7E
:101760000BF0B4EF0BF043814351D8B4BAEF0BF058
:10177000BCEF0BF0D1EF0BF04329D8A4C2EF0BF074
:10178000C4EF0BF0CCEF0BF0000E336F000E346F94
:10179000000E356F000E366F358F000E366FD9EFA5
:1017A0000BF0000E336F000E346F000E356F000E1D
:1017B000366F3351341135113611D8A4E2EF0BF0E6
:1017C000E4EF0BF0FCEF0BF0000E2F6F000E306F0C
:1017D000000E316F000E326F800E31137F0E321308
:1017E0003B5132132FC12FF130C130F131C131F1F2
:1017F00032C132F14EEF0DF04251D8A402EF0CF09D
:1018000004EF0CF00EEF0CF0000E2F6F000E306F97
:10181000000E316F000E326F4EEF0DF0435142C19A
:10182000C9F00001CA6BC95F000ECA5B7F0EC925F3
:1018300001013C6F000E0001CA2101013D6F2FC163
:1018400037F130C138F131C139F132C13AF1000E0E
:101850002F6F000E306F000E316F000E326F000ED2
:101860003E6F000E3F6F000E406F000E416F000E86
:10187000436F73EF0CF04351D8B441EF0CF043EFDA
:101880000CF05AEF0CF0D8903737383739373A37F1
:10189000D8902F3730373137323741AF52EF0CF015
:1018A00054EF0CF055EF0CF02F81D8903E373F37B6
:1018B000403741373351375D3451385935513959F3
:1018C00036513A59D8A067EF0CF069EF0CF072EF7F
:1018D0000CF0418D3351375F3451385B3551395BF2
:1018E00036513A5B432B190E436579EF0CF07BEFD1
:1018F0000CF03BEF0CF03751381139113A11D8B4D4
:1019000084EF0CF086EF0CF09EEF0CF03E819EEF22
:101910000CF0D8902F3730373137323741AF93EF53
:101920000CF095EF0CF096EF0CF02F81D8903E372D
:101930003F37403741373C07D8A03D0731AFA3EFD1
:101940000CF0A5EF0CF089EF0CF0000E436F41AFE7
:10195000ACEF0CF0AEEF0CF0DBEF0CF0FF0E3E1531
:101960000001C96FFF0E01013F150001CA6FFF0E94
:10197000010140150001CB6F7F0E010141150001EF
:10198000CC6FC951CA11CB11CC11D8B4CAEF0CF02D
:10199000CCEF0CF0D1EF0CF0010E0101436FDBEF47
:1019A0000CF001012FA1D7EF0CF0D9EF0CF0DBEF19
:1019B0000CF0CCEF0CF04351D8B4E1EF0CF0E3EFB6
:1019C0000CF009EF0DF0010E2F27000E302331230C
:1019D000322332A1EEEF0CF0F0EF0CF009EF0DF036
:1019E0002FC1C9F030C1CAF031C1CBF032C1CCF047
:1019F0000001CC35CC33CB33CA33C933C9C02FF146
:101A0000CAC030F1CBC031F1CCC032F101013C4B46
:101A10003D2B3DBF14EF0DF03D5108E13C29D8A00E
:101A200014EF0DF016EF0DF021EF0DF0000E3D6FED
:101A30003C69000E2F6F000E306F000E316F000EEC
:101A4000326F3DBF2EEF0DF03D5106E13C05D8B0A1
:101A50002CEF0DF02EEF0DF03CEF0DF0000E3D6F72
:101A6000000E3C6F000E2F6F000E306F000E316FB6
:101A7000000E326F000E3B6F3CC142F142A143EFBA
:101A80000DF045EF0DF048EF0DF0318F49EF0DF0FF
:101A9000319FD8904231326FF0EF0BF01200F29E7E
:101AA000DEC370F4DFC371F4000E0401736F2C0EFB
:101AB000726FD8EC14F02A0E04017025D96E030E53
:101AC0007121DA6E76C4DEFF77C4DDFF000E7B6F16
:101AD000000E7A6FDEC370F4DFC371F4000E736F13
:101AE0002C0E726FD8EC14F0290E04017025D96EFB
:101AF000030E7121DA6EDE04D8A481EF0DF083EFBE
:101B00000DF01BEF0EF0DEC370F4DFC371F4000EB6
:101B1000736F2C0E726FD8EC14F0260E0401702532
:101B2000D96E030E7121DA6EE8CFDFFFDEC370F4E9
:101B3000DFC371F4000E736F2C0E726FD8EC14F0CB
:101B4000270E04017025D96E030E7121DA6EE0CFE5
:101B5000DFFFDEC370F4DFC371F4000E736F2C0E71
:101B6000726FD8EC14F0280E04017025D96E030EA4
:101B70007121DA6ED8CFDFFFEAEF0DF0DEC370F42B
:101B8000DFC371F4000E0401736F2C0E726FD8EC7A
:101B900014F0040E04017025786F030E7121796F23
:101BA0007AC470F47BC471F4000E736F030E726F0D
:101BB000D8EC14F0040170517825D96E7151792157
:101BC000DA6EFDCFDEFFFECFDEFFFFCFDEFF7A4B0A
:101BD0007B2B0600FC50D8A4F0EF0DF0F2EF0DF0D7
:101BE000BEEF0DF0DEC370F4DFC371F4000E04012C
:101BF000736F2C0E726FD8EC14F0220E0401702556
:101C0000D96E030E7121DA6E7AC4DEFF7BC4DDFF6C
:101C1000DEC370F4DFC371F4000E736F2C0E726FAD
:101C2000D8EC14F0290E04017025D96E030E712131
:101C3000DA6E020EDF6E3EEC15F001C0DEF302C07C
:101C4000DFF3DEC370F4DFC371F4000E0401736FC1
:101C50002C0E726FD8EC14F0220E04017025D96E90
:101C6000030E7121DA6EDECF7CF4DDCF7DF4DEC3AE
:101C700070F4DFC371F4000E736F2C0E726FD8EC2A
:101C800014F0290E04017025D96E030E7121DA6E4D
:101C9000DF50D8A44EEF0EF050EF0EF0E9EF0EF04B
:101CA000DEC370F4DFC371F4000E736F2C0E726F1D
:101CB000D8EC14F0260E04017025D96E030E7121A4
:101CC000DA6EDF50786F7851DEC370F4DFC371F4E1
:101CD000000E736F2C0E726FD8EC14F0270E0401F7
:101CE0007025D96E030E7121DA6EDF50E06EDEC30F
:101CF00070F4DFC371F4000E736F2C0E726FD8ECAA
:101D000014F0280E04017025D96E030E7121DA6ECD
:101D1000DF50D86E000EFC6E7C517D11D8B493EF6D
:101D20000EF095EF0EF0CDEF0EF0050004017C07EC
:101D3000D8A07D07DEC370F4DFC371F4000E736FAB
:101D40002C0E726FD8EC14F0040E04017025786F1D
:101D5000030E7121796F7CC470F47DC471F4000EA0
:101D6000736F030E726FD8EC14F004017051782574
:101D7000D96E71517921DA6EDECFFDFFDECFFEFF25
:101D8000DDCFFFFF7C517D11D8A4C9EF0EF0CBEF62
:101D90000EF095EF0EF0E9EF0EF00500DEC370F4E3
:101DA000DFC371F4000E0401736F2C0E726FD8EC58
:101DB00014F0240E04017025D96E030E7121DA6E21
:101DC000DECF78F4DDCF79F478C4FDFF79C4FEFF6F
:101DD000FF6ADEC370F4DFC371F4000E736F2C0E64
:101DE000726FD8EC14F0290E04017025D96E030E21
:101DF0007121DA6E010EDF6EF28E12000001B26FF9
:101E00000001B251D8B407EF0FF009EF0FF02BEF3C
:101E10000FF0ADBF10EF0FF00EEF0FF02BEF0FF044
:101E2000AAC0AEF0ABC0AFF0ACC0B0F0ADC0B1F086
:101E3000AE1FAF1FB01FB11FAE2B000EAF23B023DC
:101E4000B123AEC0B4F0AFC0B5F0B0C0B6F0B1C011
:101E5000B7F033EF0FF0AAC0B4F0ABC0B5F0ACC030
:101E6000B6F0ADC0B7F0AA51AB11AC11AD11D8A40A
:101E70003CEF0FF03EEF0FF048EF0FF0000EAA6FAF
:101E8000000EAB6F000EAC6F000EAD6FD9EF0FF010
:101E9000960EB36F52EF0FF0B32BD890B733B63323
:101EA000B533B433000EB415AE6F000EB515AF6F79
:101EB000000EB615B06FFE0EB715B16FAE51AF1173
:101EC000B011B111D8A467EF0FF069EF0FF04CEF2C
:101ED0000FF077EF0FF0B32B010EB427000EB523F0
:101EE000B623B723D890B733B633B533B433000E27
:101EF000B415AE6F000EB515AF6F000EB615B06F0E
:101F0000FF0EB715B16FAE51AF11B011B111D8A41A
:101F10008CEF0FF08EEF0FF06BEF0FF096EF0FF0EE
:101F2000B307D890B437B537B637B737B6BF9BEFDE
:101F30000FF09DEF0FF0A5EF0FF0020EB361A3EFCE
:101F40000FF0A5EF0FF090EF0FF0B3B1AAEF0FF085
:101F5000ACEF0FF0ADEF0FF0B69FD890B333B3C036
:101F6000AEF0AF6BB06BB16BAEC0B1F0B06BAF6B3E
:101F7000AE6BAE51B413AF51B513B051B613B151EE
:101F8000B713B251D8B4C7EF0FF0C9EF0FF0D1EFCC
:101F90000FF0ADBFD0EF0FF0CEEF0FF0D1EF0FF09D
:101FA000B78FB4C0AAF0B5C0ABF0B6C0ACF0B7C044
:101FB000ADF01200E652E652E652E652FC0EDEC3E7
:101FC000E3FFFD0EDFC3E3FFFE0EE36AFF0EE36AED
:101FD000FC0EE3CF0BF0FD0EE3CF0CF0010E0B2453
:101FE000216E000E0C20226EDCC323F0DDC324F032
:101FF0009FEC13F021C00BF022C00CF0FC0E0BC0C4
:10200000E3FFFD0E0CC0E3FFFC0EE3CF01F0FD0E7D
:10201000E3500110D8A40FEF10F011EF10F035EFDE
:1020200010F0FE0EE350010F016EFE0E01C0E3FF43
:10203000016AFF0EE3500120016EFF0E01C0E3FFB5
:10204000FE0EE3CF01F0020E011807E1FF0EE35090
:10205000D8A42DEF10F02FEF10F035EF10F0000E98
:10206000016E000E026E79EF10F0FC0EE3CF0BF064
:10207000FD0EE3CF0CF02C0E0B02F3CF09F0F4CFE2
:102080000AF00C02F3500A26290E0924D96E030E19
:102090000A20DA6EDF50D8A450EF10F052EF10F0A3
:1020A000E8EF0FF0FC0EE3CF0BF0FD0EE3CF0CF0EA
:1020B0002C0E0B02F3CF09F0F4CF0AF00C02F35010
:1020C0000A26240E0924D96E030E0A20DA6E5C0E4D
:1020D000DE1809E1290EDE18D8B471EF10F073EFA5
:1020E00010F0E8EF0FF0FC0EE3CF01F0FD0EE3CFB0
:1020F00002F0E552E552E552E5521200000E0001F1
:10210000AA15B26F000EAB15B36F800EAC15B46F8D
:102110007F0EAD15B56FB251B311B411B511D8A47E
:1021200094EF10F096EF10F09EEF10F0000EAA6FF3
:10213000000EAB6F000EAC6F000EAD6F000EAE1553
:10214000B26F000EAF15B36F800EB015B46F7F0E77
:10215000B115B56FB251B311B411B511D8A4B3EF25
:1021600010F0B5EF10F0BDEF10F0000EAE6F000EE6
:10217000AF6F000EB06F000EB16FADAFC2EF10F0D9
:10218000C4EF10F0CDEF10F0AA6DAB1FD8B0AB2BA1
:10219000AC1FD8B0AC2B800EAD57B1AFD2EF10F062
:1021A000D4EF10F0DDEF10F0AE6DAF1FD8B0AF2B55
:1021B000B01FD8B0B02B800EB157000EAA1B000E76
:1021C000AB1B000EAC1B800EAD1B000EAE1B000E39
:1021D000AF1B000EB01B800EB11BAE51AA5DAF51FC
:1021E000AB59B051AC59B151AD59D8B0FAEF10F06C
:1021F000FCEF10F0FFEF10F0D89000EF11F0D88056
:102200001200C250C30B0409C26EC282C2B20BEFED
:1022100011F00DEF11F006EF11F0C350C4CFCDF067
:102220000001CE6BCDC0CEF0CD6BCD1101014C6F56
:102230000001CE5101014D6F000E336FC00E346F9F
:102240007F0E356F440E366F000E2B6F000E2C6F15
:10225000A00E2D6F400E2E6F4CC1AAF04DC1ABF0F9
:102260000001000EABBFFF0EAC6FAD6F010EFEECB8
:102270000EF0AAC027F1ABC028F1ACC029F1ADC067
:102280002AF101EC03F027C12FF128C130F129C157
:1022900031F12AC132F172EC0BF02FC148F130C19B
:1022A00049F131C14AF132C14BF148C127F149C16D
:1022B00028F14AC129F14BC12AF1000E01012B6F0F
:1022C000000E2C6FC80E2D6F420E2E6F01EC03F026
:1022D00027C144F128C145F129C146F12AC147F17E
:1022E000120001EC11F044C1D0F045C1D1F046C15B
:1022F000D2F047C1D3F0D0C0AAF0D1C0ABF0D2C069
:10230000ACF0D3C0ADF0000E0001AE6F000EAF6FA9
:10231000B80EB06F410EB16F7EEC10F00001D8B076
:1023200094EF11F096EF11F09AEF11F04E0ECF6F7F
:10233000BAEF11F0D0C0AAF0D1C0ABF0D2C0ACF06F
:10234000D3C0ADF0000EAE6F000EAF6FF00EB06FE9
:10235000410EB16F7EEC10F00001D8B0B2EF11F079
:10236000B4EF11F0B8EF11F04D0ECF6FBAEF11F0DE
:10237000530ECF6F500EAA6F010EAB6FCFC0ACF0F3
:102380001BEC12F0000E0401776F0A0E766F4FEC13
:102390000DF071EF11F01200500E0201356F010EB9
:1023A000366F3D0E376F020E386F68EC12F0530E29
:1023B00002013D19D8A4DFEF11F0E1EF11F0EAEFCF
:1023C00011F08A8C8A8E310E01014F6F010E4E6F13
:1023D00003EF12F04D0E3D19D8A4F1EF11F0F3EF19
:1023E00011F0FCEF11F08A9C8A8E300E01014F6FC4
:1023F000010E4E6F03EF12F08A8C8A9E320E01019D
:102400004F6F000E4E6F800E02012B6F010E2C6F6E
:1024100066EC07F0720E02012B6F010E2C6F66EC5A
:1024200007F0000E0401776F0A0E766F4FEC0DF087
:10243000CCEF11F01200060E0001AA250401766F00
:10244000000E0001AB210401776F87EC09F0000159
:1024500020EE02F0AA51D926AB51DA22DECFADF040
:10246000DDCFAEF0AD51AA25AF6FAE51AB21B06F4D
:10247000040EAF25D96E000EB021DA6EACC0DFFFBE
:1024800020EE02F0AA51D926AB51DA22DECFADF010
:10249000DDCFAEF0010EAD27000EAE23010EAD175D
:1024A000000EAE1720EE02F0AA51D926AB51DA2267
:1024B000ADC0DEFFAEC0DDFF140EAA2502012B6FFA
:1024C000000E0001AB2102012C6F66EC07F0120038
:1024D000140E020135250401766F000E020136212B
:1024E0000401776F87EC09F035C2D9FF36C2DAFFF5
:1024F000DECF39F2DDCF3AF20201395135253B6F9B
:102500003A5136213C6F040E3B25D96E000E3C211A
:10251000DA6E37C2E9FF38C2EAFFDFCFEFFF35C21C
:10252000D9FF36C2DAFFDECF39F2DDCF3AF2010E43
:102530003927000E3A23010E3917000E3A1735C21B
:10254000D9FF36C2DAFF39C2DEFF3AC2DDFF060E1E
:1025500035252B6F000E36212C6F66EC07F012002C
:10256000800E0401766F010E776F87EC09F0310E53
:1025700001014F19D8A4BFEF12F0C1EF12F0CAEF5A
:1025800012F0000E02013F6F010E3E6F6DEC13F072
:10259000ECEF12F0300E4F19D8A4D1EF12F0D3EFB8
:1025A00012F0DCEF12F0000E02013F6F000E3E6FE2
:1025B0006DEC13F0ECEF12F0320E4F19D8A4E3EFEC
:1025C00012F0E5EF12F0ECEF12F0000E02013F6F97
:1025D000020E3E6F6DEC13F0000E0401776F0A0ED1
:1025E000766F4FEC0DF0B0EF12F0120095EC14F096
:1025F000000E0501076F010E066F000E096F000E39
:10260000086FE20E0A6F220E0B6FD1EC13F0000E72
:102610000501076F020E066F000E096F000E086FAE
:10262000980E0A6F230E0B6FD1EC13F0000E05010C
:10263000076F030E066F000E096F000E086F600E25
:102640000A6F250E0B6FD1EC13F0000E0501076F1A
:10265000040E066F000E096F000E086FEA0E0A6F77
:10266000280E0B6FD1EC13F02DEC15F036EF13F0B4
:1026700006EF00F0040172517311D8B442EF13F069
:1026800044EF13F068EF13F0010E756F4CEF13F089
:10269000D89072377337752B73AF51EF13F053EF38
:1026A00013F048EF13F07251705D73517159D8A057
:1026B0005CEF13F05EEF13F062EF13F07251705F96
:1026C0007351715BD89073337233752F53EF13F0DE
:1026D00070C470F471C471F412007FEF13F0010E36
:1026E000826E9EEF13F0040E826E9EEF13F0020EC8
:1026F000826E9EEF13F0080E826E9EEF13F03EC2C4
:1027000040F23FC241F202014151000AD8B48BEFBE
:1027100013F09EEF13F04051000AD8B46FEF13F09E
:10272000010AD8B473EF13F0030AD8B477EF13F0AB
:10273000010AD8B47BEF13F09EEF13F01200235080
:102740002410D8B4A6EF13F0A8EF13F0CCEF13F0D9
:10275000010E256EB0EF13F0D89023362436252ACB
:1027600024AEB5EF13F0B7EF13F0ACEF13F0235036
:10277000215C24502258D8A0C0EF13F0C2EF13F010
:10278000C6EF13F02350215E2450225AD8902432F1
:102790002332252EB7EF13F021C021F022C022F002
:1027A000120006C50CF507C50DF508C50EF509C5DF
:1027B0000FF50AC530F50BC531F5000E05012F6F79
:1027C000000E2E6F000E356F25EE0CF0DCC300F509
:1027D000DDC301F5000E036F2C0E026FC4EC14F084
:1027E000000E05010025E96E030E0121EA6E2B0E95
:1027F000DBCFEBFFE806FCE20301DC4BDD2B120034
:1028000004C5D9FF05C5DAFFDE6ADD6A050120EEE1
:1028100002F00451D9260551DA22DE6ADD6A060E7D
:102820000425006F000E0521016F000E036F020EDC
:10283000026F4FEC14F0140E05010425006F000E1A
:102840000521016F000E036F000E026F4FEC14F0B4
:10285000120038EC15F033EC15F03BEC15F010ECF1
:1028600015F0500E0501046F010E056F00EC14F019
:10287000800E0501006F010E016F000E036F000E48
:10288000026F4FEC14F0720E0501006F010E016F24
:10289000000E036F000E026F4FEC14F01200F29E58
:1028A00000C5D9FF01C5DAFF02C5DEFF03C5DDFFA4
:1028B000050120EE02F00051D9260151DA2202C5AD
:1028C000DEFF03C5DDFF20EE0AF00051D9260151DD
:1028D000DA22DE6ADD6A20EE0CF00051D9260151C1
:1028E000DA22DE6ADD6AF28E1200720E0401766F61
:1028F000010E776F87EC09F001014E05D8A483EF34
:1029000014F085EF14F089EF14F044EC15F08BEF20
:1029100014F041EC15F0000E0401776F0A0E766F8B
:102920004FEC0DF075EF14F01200000E0301DD6F97
:10293000000EDC6F000EDF6F000EDE6F000E050173
:10294000076F000E066F000E096F000E086F5C0E19
:102950000A6F290E0B6FD1EC13F0120083BAB3EF9C
:1029600014F0B6EF14F0010EB7EF14F0000EFF0AEA
:10297000216E213A21468C502118DF0B21188C6ED4
:102980000000AEEF14F01200050100510203F3CF76
:1029900004F5F4CF05F500510303F3500527015169
:1029A0000203F350052704C500F505C501F5120023
:1029B000040170517203F3CF74F4F4CF75F47051C5
:1029C0007303F350752771517203F350752774C464
:1029D00070F475C471F4120021502302F3CF25F076
:1029E000F4CF26F021502402F35026262250230251
:1029F000F350262625C021F026C022F0120003EE57
:102A000000F0E00EEE6AE806FDE101EE4EF0400E49
:102A1000EE6AE806FDE1000EF86E0001F6EF12F036
:102A2000C150F00B0C09C16EC198C19AC08E380E0E
:102A3000C012C050F80B0409C06EC2801200F28CA4
:102A4000F28AF294F28ED58CD59AD596070ED512CD
:102A5000000ED76E000ED66E12001FEC15F029EC9A
:102A600014F0D58E1200F00E946E000E826E1200DD
:102A7000939C939E12009498949A1200DAEC0FF0B3
:0E2A800012008298829A12008288829A1200B6
:00000001FF
